{
  "_format": "hh-sol-artifact-1",
  "contractName": "EventFund",
  "sourceName": "contracts/EventFund.sol",
  "abi": [
    {
      "anonymous": false,
      "inputs": [
        {
          "indexed": false,
          "internalType": "string",
          "name": "name",
          "type": "string"
        },
        {
          "indexed": false,
          "internalType": "string",
          "name": "image",
          "type": "string"
        },
        {
          "indexed": false,
          "internalType": "string",
          "name": "description",
          "type": "string"
        },
        {
          "indexed": false,
          "internalType": "string",
          "name": "hostName",
          "type": "string"
        },
        {
          "indexed": false,
          "internalType": "string",
          "name": "date",
          "type": "string"
        },
        {
          "indexed": false,
          "internalType": "string",
          "name": "time",
          "type": "string"
        },
        {
          "indexed": false,
          "internalType": "uint256",
          "name": "totalFund",
          "type": "uint256"
        },
        {
          "indexed": false,
          "internalType": "uint256",
          "name": "amountRaised",
          "type": "uint256"
        },
        {
          "indexed": true,
          "internalType": "address",
          "name": "wallet",
          "type": "address"
        }
      ],
      "name": "EventLog",
      "type": "event"
    },
    {
      "anonymous": false,
      "inputs": [
        {
          "indexed": true,
          "internalType": "address",
          "name": "wallet",
          "type": "address"
        }
      ],
      "name": "EventTargetReached",
      "type": "event"
    },
    {
      "anonymous": false,
      "inputs": [
        {
          "indexed": false,
          "internalType": "string",
          "name": "name",
          "type": "string"
        },
        {
          "indexed": false,
          "internalType": "string",
          "name": "description",
          "type": "string"
        },
        {
          "indexed": false,
          "internalType": "string",
          "name": "hostName",
          "type": "string"
        },
        {
          "indexed": false,
          "internalType": "string",
          "name": "date",
          "type": "string"
        },
        {
          "indexed": false,
          "internalType": "string",
          "name": "time",
          "type": "string"
        },
        {
          "indexed": false,
          "internalType": "uint256",
          "name": "totalFund",
          "type": "uint256"
        },
        {
          "indexed": false,
          "internalType": "uint256",
          "name": "amountRaised",
          "type": "uint256"
        },
        {
          "indexed": true,
          "internalType": "address",
          "name": "wallet",
          "type": "address"
        }
      ],
      "name": "NewEventLog",
      "type": "event"
    },
    {
      "inputs": [
        {
          "internalType": "string",
          "name": "_name",
          "type": "string"
        },
        {
          "internalType": "string",
          "name": "_image",
          "type": "string"
        },
        {
          "internalType": "string",
          "name": "_description",
          "type": "string"
        },
        {
          "internalType": "string",
          "name": "_hostName",
          "type": "string"
        },
        {
          "internalType": "string",
          "name": "_date",
          "type": "string"
        },
        {
          "internalType": "string",
          "name": "_time",
          "type": "string"
        },
        {
          "internalType": "uint256",
          "name": "_totalFund",
          "type": "uint256"
        },
        {
          "internalType": "uint256",
          "name": "_amountRaised",
          "type": "uint256"
        }
      ],
      "name": "createEvent",
      "outputs": [],
      "stateMutability": "nonpayable",
      "type": "function"
    },
    {
      "inputs": [
        {
          "internalType": "uint256",
          "name": "_id",
          "type": "uint256"
        }
      ],
      "name": "deleteEventById",
      "outputs": [],
      "stateMutability": "nonpayable",
      "type": "function"
    },
    {
      "inputs": [
        {
          "internalType": "uint256",
          "name": "_id",
          "type": "uint256"
        }
      ],
      "name": "eventById",
      "outputs": [
        {
          "internalType": "string",
          "name": "",
          "type": "string"
        },
        {
          "internalType": "string",
          "name": "",
          "type": "string"
        },
        {
          "internalType": "string",
          "name": "",
          "type": "string"
        },
        {
          "internalType": "string",
          "name": "",
          "type": "string"
        },
        {
          "internalType": "string",
          "name": "",
          "type": "string"
        },
        {
          "internalType": "uint256",
          "name": "",
          "type": "uint256"
        },
        {
          "internalType": "uint256",
          "name": "",
          "type": "uint256"
        }
      ],
      "stateMutability": "view",
      "type": "function"
    },
    {
      "inputs": [
        {
          "internalType": "uint256",
          "name": "",
          "type": "uint256"
        }
      ],
      "name": "events",
      "outputs": [
        {
          "internalType": "string",
          "name": "name",
          "type": "string"
        },
        {
          "internalType": "string",
          "name": "image",
          "type": "string"
        },
        {
          "internalType": "string",
          "name": "description",
          "type": "string"
        },
        {
          "internalType": "string",
          "name": "hostName",
          "type": "string"
        },
        {
          "internalType": "string",
          "name": "date",
          "type": "string"
        },
        {
          "internalType": "string",
          "name": "time",
          "type": "string"
        },
        {
          "internalType": "uint256",
          "name": "totalFund",
          "type": "uint256"
        },
        {
          "internalType": "uint256",
          "name": "amountRaised",
          "type": "uint256"
        },
        {
          "internalType": "address payable",
          "name": "wallet",
          "type": "address"
        }
      ],
      "stateMutability": "view",
      "type": "function"
    },
    {
      "inputs": [
        {
          "internalType": "uint256",
          "name": "_id",
          "type": "uint256"
        },
        {
          "internalType": "uint256",
          "name": "_amount",
          "type": "uint256"
        }
      ],
      "name": "fundEventById",
      "outputs": [],
      "stateMutability": "payable",
      "type": "function"
    },
    {
      "inputs": [
        {
          "internalType": "uint256",
          "name": "_eventId",
          "type": "uint256"
        }
      ],
      "name": "getEvent",
      "outputs": [
        {
          "internalType": "string",
          "name": "",
          "type": "string"
        },
        {
          "internalType": "string",
          "name": "",
          "type": "string"
        },
        {
          "internalType": "string",
          "name": "",
          "type": "string"
        },
        {
          "internalType": "string",
          "name": "",
          "type": "string"
        },
        {
          "internalType": "string",
          "name": "",
          "type": "string"
        },
        {
          "internalType": "uint256",
          "name": "",
          "type": "uint256"
        },
        {
          "internalType": "uint256",
          "name": "",
          "type": "uint256"
        }
      ],
      "stateMutability": "view",
      "type": "function"
    },
    {
      "inputs": [],
      "name": "getTotalEvents",
      "outputs": [
        {
          "internalType": "uint256",
          "name": "",
          "type": "uint256"
        }
      ],
      "stateMutability": "view",
      "type": "function"
    }
  ],
  "bytecode": "0x6080604052600060015534801561001557600080fd5b506120d3806100256000396000f3fe6080604052600436106100705760003560e01c80636c77cff71161004e5780636c77cff7146101285780636d1884e0146101515780639f1e7ca614610194578063df14c032146101bd57610070565b80630b791430146100755780634746e059146100ba57806361606940146100fd575b600080fd5b34801561008157600080fd5b5061009c60048036038101906100979190611303565b6101d9565b6040516100b199989796959493929190611410565b60405180910390f35b3480156100c657600080fd5b506100e160048036038101906100dc9190611303565b610577565b6040516100f497969594939291906114c7565b60405180910390f35b34801561010957600080fd5b506101126108ec565b60405161011f9190611559565b60405180910390f35b34801561013457600080fd5b5061014f600480360381019061014a9190611303565b6108f6565b005b34801561015d57600080fd5b5061017860048036038101906101739190611303565b610a48565b60405161018b97969594939291906114c7565b60405180910390f35b3480156101a057600080fd5b506101bb60048036038101906101b691906116a9565b610dbd565b005b6101d760048036038101906101d29190611807565b610f87565b005b60006020528060005260406000206000915090508060000180546101fc90611876565b80601f016020809104026020016040519081016040528092919081815260200182805461022890611876565b80156102755780601f1061024a57610100808354040283529160200191610275565b820191906000526020600020905b81548152906001019060200180831161025857829003601f168201915b50505050509080600101805461028a90611876565b80601f01602080910402602001604051908101604052809291908181526020018280546102b690611876565b80156103035780601f106102d857610100808354040283529160200191610303565b820191906000526020600020905b8154815290600101906020018083116102e657829003601f168201915b50505050509080600201805461031890611876565b80601f016020809104026020016040519081016040528092919081815260200182805461034490611876565b80156103915780601f1061036657610100808354040283529160200191610391565b820191906000526020600020905b81548152906001019060200180831161037457829003601f168201915b5050505050908060030180546103a690611876565b80601f01602080910402602001604051908101604052809291908181526020018280546103d290611876565b801561041f5780601f106103f45761010080835404028352916020019161041f565b820191906000526020600020905b81548152906001019060200180831161040257829003601f168201915b50505050509080600401805461043490611876565b80601f016020809104026020016040519081016040528092919081815260200182805461046090611876565b80156104ad5780601f10610482576101008083540402835291602001916104ad565b820191906000526020600020905b81548152906001019060200180831161049057829003601f168201915b5050505050908060050180546104c290611876565b80601f01602080910402602001604051908101604052809291908181526020018280546104ee90611876565b801561053b5780601f106105105761010080835404028352916020019161053b565b820191906000526020600020905b81548152906001019060200180831161051e57829003601f168201915b5050505050908060060154908060070154908060080160009054906101000a900473ffffffffffffffffffffffffffffffffffffffff16905089565b60608060608060606000806000808981526020019081526020016000206000016000808a81526020019081526020016000206002016000808b81526020019081526020016000206003016000808c81526020019081526020016000206004016000808d81526020019081526020016000206005016000808e8152602001908152602001600020600601546000808f81526020019081526020016000206007015486805461062390611876565b80601f016020809104026020016040519081016040528092919081815260200182805461064f90611876565b801561069c5780601f106106715761010080835404028352916020019161069c565b820191906000526020600020905b81548152906001019060200180831161067f57829003601f168201915b505050505096508580546106af90611876565b80601f01602080910402602001604051908101604052809291908181526020018280546106db90611876565b80156107285780601f106106fd57610100808354040283529160200191610728565b820191906000526020600020905b81548152906001019060200180831161070b57829003601f168201915b5050505050955084805461073b90611876565b80601f016020809104026020016040519081016040528092919081815260200182805461076790611876565b80156107b45780601f10610789576101008083540402835291602001916107b4565b820191906000526020600020905b81548152906001019060200180831161079757829003601f168201915b505050505094508380546107c790611876565b80601f01602080910402602001604051908101604052809291908181526020018280546107f390611876565b80156108405780601f1061081557610100808354040283529160200191610840565b820191906000526020600020905b81548152906001019060200180831161082357829003601f168201915b5050505050935082805461085390611876565b80601f016020809104026020016040519081016040528092919081815260200182805461087f90611876565b80156108cc5780601f106108a1576101008083540402835291602001916108cc565b820191906000526020600020905b8154815290600101906020018083116108af57829003601f168201915b505050505092509650965096509650965096509650919395979092949650565b6000600154905090565b60008082815260200190815260200160002060080160009054906101000a900473ffffffffffffffffffffffffffffffffffffffff1673ffffffffffffffffffffffffffffffffffffffff163373ffffffffffffffffffffffffffffffffffffffff1614610999576040517f08c379a0000000000000000000000000000000000000000000000000000000008152600401610990906118f3565b60405180910390fd5b600080828152602001908152602001600020600080820160006109bc919061125c565b6001820160006109cc919061125c565b6002820160006109dc919061125c565b6003820160006109ec919061125c565b6004820160006109fc919061125c565b600582016000610a0c919061125c565b600682016000905560078201600090556008820160006101000a81549073ffffffffffffffffffffffffffffffffffffffff0219169055505050565b60608060608060606000806000808981526020019081526020016000206000016000808a81526020019081526020016000206002016000808b81526020019081526020016000206003016000808c81526020019081526020016000206004016000808d81526020019081526020016000206005016000808e8152602001908152602001600020600601546000808f815260200190815260200160002060070154868054610af490611876565b80601f0160208091040260200160405190810160405280929190818152602001828054610b2090611876565b8015610b6d5780601f10610b4257610100808354040283529160200191610b6d565b820191906000526020600020905b815481529060010190602001808311610b5057829003601f168201915b50505050509650858054610b8090611876565b80601f0160208091040260200160405190810160405280929190818152602001828054610bac90611876565b8015610bf95780601f10610bce57610100808354040283529160200191610bf9565b820191906000526020600020905b815481529060010190602001808311610bdc57829003601f168201915b50505050509550848054610c0c90611876565b80601f0160208091040260200160405190810160405280929190818152602001828054610c3890611876565b8015610c855780601f10610c5a57610100808354040283529160200191610c85565b820191906000526020600020905b815481529060010190602001808311610c6857829003601f168201915b50505050509450838054610c9890611876565b80601f0160208091040260200160405190810160405280929190818152602001828054610cc490611876565b8015610d115780601f10610ce657610100808354040283529160200191610d11565b820191906000526020600020905b815481529060010190602001808311610cf457829003601f168201915b50505050509350828054610d2490611876565b80601f0160208091040260200160405190810160405280929190818152602001828054610d5090611876565b8015610d9d5780601f10610d7257610100808354040283529160200191610d9d565b820191906000526020600020905b815481529060010190602001808311610d8057829003601f168201915b505050505092509650965096509650965096509650919395979092949650565b6040518061012001604052808981526020018881526020018781526020018681526020018581526020018481526020018381526020018281526020013373ffffffffffffffffffffffffffffffffffffffff1681525060008060015481526020019081526020016000206000820151816000019081610e3c9190611abf565b506020820151816001019081610e529190611abf565b506040820151816002019081610e689190611abf565b506060820151816003019081610e7e9190611abf565b506080820151816004019081610e949190611abf565b5060a0820151816005019081610eaa9190611abf565b5060c0820151816006015560e082015181600701556101008201518160080160006101000a81548173ffffffffffffffffffffffffffffffffffffffff021916908373ffffffffffffffffffffffffffffffffffffffff16021790555090505060016000815480929190610f1d90611bc0565b91905055503373ffffffffffffffffffffffffffffffffffffffff167fc74cc633cc729e731163cdab5c8c17276f7e2958a913fdc8e3973525179d5eb08988888888886000604051610f759796959493929190611c43565b60405180910390a25050505050505050565b600080600084815260200190815260200160002090508060080160009054906101000a900473ffffffffffffffffffffffffffffffffffffffff1673ffffffffffffffffffffffffffffffffffffffff163373ffffffffffffffffffffffffffffffffffffffff1603610ff957600080fd5b6000341161103c576040517f08c379a000000000000000000000000000000000000000000000000000000000815260040161103390611d47565b60405180910390fd5b8060060154341115611083576040517f08c379a000000000000000000000000000000000000000000000000000000000815260040161107a90611dd9565b60405180910390fd5b8060060154816007015411156110ce576040517f08c379a00000000000000000000000000000000000000000000000000000000081526004016110c590611e6b565b60405180910390fd5b348160070160008282546110e29190611e8b565b925050819055506000808260080160009054906101000a900473ffffffffffffffffffffffffffffffffffffffff1673ffffffffffffffffffffffffffffffffffffffff163460405161113490611ef0565b60006040518083038185875af1925050503d8060008114611171576040519150601f19603f3d011682016040523d82523d6000602084013e611176565b606091505b5091509150816111bb576040517f08c379a00000000000000000000000000000000000000000000000000000000081526004016111b290611f51565b60405180910390fd5b8260080160009054906101000a900473ffffffffffffffffffffffffffffffffffffffff1673ffffffffffffffffffffffffffffffffffffffff167f3fb9cd24c56942ee38e1da2fc0e8a976c3cea41535e128ac84bde89853d7e82d8460000185600101866002018760030188600401896005018a600601548b6007015460405161124d989796959493929190611ff5565b60405180910390a25050505050565b50805461126890611876565b6000825580601f1061127a5750611299565b601f016020900490600052602060002090810190611298919061129c565b5b50565b5b808211156112b557600081600090555060010161129d565b5090565b6000604051905090565b600080fd5b600080fd5b6000819050919050565b6112e0816112cd565b81146112eb57600080fd5b50565b6000813590506112fd816112d7565b92915050565b600060208284031215611319576113186112c3565b5b6000611327848285016112ee565b91505092915050565b600081519050919050565b600082825260208201905092915050565b60005b8381101561136a57808201518184015260208101905061134f565b60008484015250505050565b6000601f19601f8301169050919050565b600061139282611330565b61139c818561133b565b93506113ac81856020860161134c565b6113b581611376565b840191505092915050565b6113c9816112cd565b82525050565b600073ffffffffffffffffffffffffffffffffffffffff82169050919050565b60006113fa826113cf565b9050919050565b61140a816113ef565b82525050565b600061012082019050818103600083015261142b818c611387565b9050818103602083015261143f818b611387565b90508181036040830152611453818a611387565b905081810360608301526114678189611387565b9050818103608083015261147b8188611387565b905081810360a083015261148f8187611387565b905061149e60c08301866113c0565b6114ab60e08301856113c0565b6114b9610100830184611401565b9a9950505050505050505050565b600060e08201905081810360008301526114e1818a611387565b905081810360208301526114f58189611387565b905081810360408301526115098188611387565b9050818103606083015261151d8187611387565b905081810360808301526115318186611387565b905061154060a08301856113c0565b61154d60c08301846113c0565b98975050505050505050565b600060208201905061156e60008301846113c0565b92915050565b600080fd5b600080fd5b7f4e487b7100000000000000000000000000000000000000000000000000000000600052604160045260246000fd5b6115b682611376565b810181811067ffffffffffffffff821117156115d5576115d461157e565b5b80604052505050565b60006115e86112b9565b90506115f482826115ad565b919050565b600067ffffffffffffffff8211156116145761161361157e565b5b61161d82611376565b9050602081019050919050565b82818337600083830152505050565b600061164c611647846115f9565b6115de565b90508281526020810184848401111561166857611667611579565b5b61167384828561162a565b509392505050565b600082601f8301126116905761168f611574565b5b81356116a0848260208601611639565b91505092915050565b600080600080600080600080610100898b0312156116ca576116c96112c3565b5b600089013567ffffffffffffffff8111156116e8576116e76112c8565b5b6116f48b828c0161167b565b985050602089013567ffffffffffffffff811115611715576117146112c8565b5b6117218b828c0161167b565b975050604089013567ffffffffffffffff811115611742576117416112c8565b5b61174e8b828c0161167b565b965050606089013567ffffffffffffffff81111561176f5761176e6112c8565b5b61177b8b828c0161167b565b955050608089013567ffffffffffffffff81111561179c5761179b6112c8565b5b6117a88b828c0161167b565b94505060a089013567ffffffffffffffff8111156117c9576117c86112c8565b5b6117d58b828c0161167b565b93505060c06117e68b828c016112ee565b92505060e06117f78b828c016112ee565b9150509295985092959890939650565b6000806040838503121561181e5761181d6112c3565b5b600061182c858286016112ee565b925050602061183d858286016112ee565b9150509250929050565b7f4e487b7100000000000000000000000000000000000000000000000000000000600052602260045260246000fd5b6000600282049050600182168061188e57607f821691505b6020821081036118a1576118a0611847565b5b50919050565b7f596f7520646964206e6f74206372656174652074686973206576656e74000000600082015250565b60006118dd601d8361133b565b91506118e8826118a7565b602082019050919050565b6000602082019050818103600083015261190c816118d0565b9050919050565b60008190508160005260206000209050919050565b60006020601f8301049050919050565b600082821b905092915050565b6000600883026119757fffffffffffffffffffffffffffffffffffffffffffffffffffffffffffffffff82611938565b61197f8683611938565b95508019841693508086168417925050509392505050565b6000819050919050565b60006119bc6119b76119b2846112cd565b611997565b6112cd565b9050919050565b6000819050919050565b6119d6836119a1565b6119ea6119e2826119c3565b848454611945565b825550505050565b600090565b6119ff6119f2565b611a0a8184846119cd565b505050565b5b81811015611a2e57611a236000826119f7565b600181019050611a10565b5050565b601f821115611a7357611a4481611913565b611a4d84611928565b81016020851015611a5c578190505b611a70611a6885611928565b830182611a0f565b50505b505050565b600082821c905092915050565b6000611a9660001984600802611a78565b1980831691505092915050565b6000611aaf8383611a85565b9150826002028217905092915050565b611ac882611330565b67ffffffffffffffff811115611ae157611ae061157e565b5b611aeb8254611876565b611af6828285611a32565b600060209050601f831160018114611b295760008415611b17578287015190505b611b218582611aa3565b865550611b89565b601f198416611b3786611913565b60005b82811015611b5f57848901518255600182019150602085019450602081019050611b3a565b86831015611b7c5784890151611b78601f891682611a85565b8355505b6001600288020188555050505b505050505050565b7f4e487b7100000000000000000000000000000000000000000000000000000000600052601160045260246000fd5b6000611bcb826112cd565b91507fffffffffffffffffffffffffffffffffffffffffffffffffffffffffffffffff8203611bfd57611bfc611b91565b5b600182019050919050565b6000819050919050565b6000611c2d611c28611c2384611c08565b611997565b6112cd565b9050919050565b611c3d81611c12565b82525050565b600060e0820190508181036000830152611c5d818a611387565b90508181036020830152611c718189611387565b90508181036040830152611c858188611387565b90508181036060830152611c998187611387565b90508181036080830152611cad8186611387565b9050611cbc60a08301856113c0565b611cc960c0830184611c34565b98975050505050505050565b7f43454c4f20616d6f756e74206d7573742062652067726561746572207468616e60008201527f2030000000000000000000000000000000000000000000000000000000000000602082015250565b6000611d3160228361133b565b9150611d3c82611cd5565b604082019050919050565b60006020820190508181036000830152611d6081611d24565b9050919050565b7f43454c4f20616d6f756e74206d757374206265206c657373207468616e20746f60008201527f74616c20616d6f756e7400000000000000000000000000000000000000000000602082015250565b6000611dc3602a8361133b565b9150611dce82611d67565b604082019050919050565b60006020820190508181036000830152611df281611db6565b9050919050565b7f54686973206576656e742068617320726561636865642069742773207461726760008201527f657420616d6f756e740000000000000000000000000000000000000000000000602082015250565b6000611e5560298361133b565b9150611e6082611df9565b604082019050919050565b60006020820190508181036000830152611e8481611e48565b9050919050565b6000611e96826112cd565b9150611ea1836112cd565b9250828201905080821115611eb957611eb8611b91565b5b92915050565b600081905092915050565b50565b6000611eda600083611ebf565b9150611ee582611eca565b600082019050919050565b6000611efb82611ecd565b9150819050919050565b7f4661696c656420746f2073656e642043454c4f00000000000000000000000000600082015250565b6000611f3b60138361133b565b9150611f4682611f05565b602082019050919050565b60006020820190508181036000830152611f6a81611f2e565b9050919050565b60008154611f7e81611876565b611f88818661133b565b94506001821660008114611fa35760018114611fb957611fec565b60ff198316865281151560200286019350611fec565b611fc285611913565b60005b83811015611fe457815481890152600182019150602081019050611fc5565b808801955050505b50505092915050565b6000610100820190508181036000830152612010818b611f71565b90508181036020830152612024818a611f71565b905081810360408301526120388189611f71565b9050818103606083015261204c8188611f71565b905081810360808301526120608187611f71565b905081810360a08301526120748186611f71565b905061208360c08301856113c0565b61209060e08301846113c0565b999850505050505050505056fea2646970667358221220ab2507e46fe52bc195d377e08ececf36fa37a29a7e5b6a769ff97da44d9e78c564736f6c63430008120033",
  "linkReferences": {},
  "deployedLinkReferences": {}
}